{
  "_format": "hh-sol-artifact-1",
  "contractName": "HelloWorld",
  "sourceName": "contracts/HelloWorld.sol",
  "abi": [
    {
      "inputs": [
        {
          "internalType": "string",
          "name": "message",
          "type": "string"
        }
      ],
      "stateMutability": "nonpayable",
      "type": "constructor"
    },
    {
      "inputs": [],
      "name": "greeting",
      "outputs": [
        {
          "internalType": "string",
          "name": "",
          "type": "string"
        }
      ],
      "stateMutability": "view",
      "type": "function"
    },
    {
      "inputs": [
        {
          "internalType": "string",
          "name": "newMessage",
          "type": "string"
        }
      ],
      "name": "setGreeting",
      "outputs": [],
      "stateMutability": "nonpayable",
      "type": "function"
    },
    {
      "inputs": [],
      "name": "showGreeting",
      "outputs": [
        {
          "internalType": "string",
          "name": "",
          "type": "string"
        }
      ],
      "stateMutability": "view",
      "type": "function"
    }
  ],
  "bytecode": "0x608060405234801561001057600080fd5b506040516105c43803806105c48339818101604052602081101561003357600080fd5b810190808051604051939291908464010000000082111561005357600080fd5b8382019150602082018581111561006957600080fd5b825186600182028301116401000000008211171561008657600080fd5b8083526020830192505050908051906020019080838360005b838110156100ba57808201518184015260208101905061009f565b50505050905090810190601f1680156100e75780820380516001836020036101000a031916815260200191505b50604052505050806000908051906020019061010492919061010b565b50506101a8565b828054600181600116156101000203166002900490600052602060002090601f016020900481019282601f1061014c57805160ff191683800117855561017a565b8280016001018555821561017a579182015b8281111561017957825182559160200191906001019061015e565b5b509050610187919061018b565b5090565b5b808211156101a457600081600090555060010161018c565b5090565b61040d806101b76000396000f3fe608060405234801561001057600080fd5b50600436106100415760003560e01c8063a413686214610046578063ef690cc014610101578063fb9fb29714610184575b600080fd5b6100ff6004803603602081101561005c57600080fd5b810190808035906020019064010000000081111561007957600080fd5b82018360208201111561008b57600080fd5b803590602001918460018302840111640100000000831117156100ad57600080fd5b91908080601f016020809104026020016040519081016040528093929190818152602001838380828437600081840152601f19601f820116905080830192505050505050509192919290505050610207565b005b610109610221565b6040518080602001828103825283818151815260200191508051906020019080838360005b8381101561014957808201518184015260208101905061012e565b50505050905090810190601f1680156101765780820380516001836020036101000a031916815260200191505b509250505060405180910390f35b61018c6102bf565b6040518080602001828103825283818151815260200191508051906020019080838360005b838110156101cc5780820151818401526020810190506101b1565b50505050905090810190601f1680156101f95780820380516001836020036101000a031916815260200191505b509250505060405180910390f35b806000908051906020019061021d92919061033a565b5050565b60008054600181600116156101000203166002900480601f0160208091040260200160405190810160405280929190818152602001828054600181600116156101000203166002900480156102b75780601f1061028c576101008083540402835291602001916102b7565b820191906000526020600020905b81548152906001019060200180831161029a57829003601f168201915b505050505081565b6060600060405160200180828054600181600116156101000203166002900480156103215780601f106102ff576101008083540402835291820191610321565b820191906000526020600020905b81548152906001019060200180831161030d575b5050915050604051602081830303815290604052905090565b828054600181600116156101000203166002900490600052602060002090601f016020900481019282601f1061037b57805160ff19168380011785556103a9565b828001600101855582156103a9579182015b828111156103a857825182559160200191906001019061038d565b5b5090506103b691906103ba565b5090565b5b808211156103d35760008160009055506001016103bb565b509056fea2646970667358221220b3d82cf510eff0f87019af472114b171bbdde6e51a428016deeebd3a4222284464736f6c63430007030033",
  "linkReferences": {},
  "deployedLinkReferences": {}
}